{
  "_format": "hh-sol-artifact-1",
  "contractName": "MerkleAirdrop",
  "sourceName": "contracts/MerkleAirdrop.sol",
  "abi": [
    {
      "inputs": [
        {
          "internalType": "address",
          "name": "_tokenAddress",
          "type": "address"
        },
        {
          "internalType": "bytes32",
          "name": "_merkleRoot",
          "type": "bytes32"
        }
      ],
      "stateMutability": "nonpayable",
      "type": "constructor"
    },
    {
      "inputs": [],
      "name": "AddressZeroDenied",
      "type": "error"
    },
    {
      "inputs": [],
      "name": "OnlyOwnerCanDoThis",
      "type": "error"
    },
    {
      "inputs": [],
      "name": "YouAlreadyClaimed",
      "type": "error"
    },
    {
      "inputs": [],
      "name": "YouAreNotEligibleForAirdrop",
      "type": "error"
    },
    {
      "inputs": [],
      "name": "YouCantClaimForSomeoneElse",
      "type": "error"
    },
    {
      "anonymous": false,
      "inputs": [
        {
          "indexed": false,
          "internalType": "address",
          "name": "addrs",
          "type": "address"
        },
        {
          "indexed": false,
          "internalType": "uint256",
          "name": "amount",
          "type": "uint256"
        }
      ],
      "name": "AirdropClaimedSuccessFully",
      "type": "event"
    },
    {
      "anonymous": false,
      "inputs": [],
      "name": "MerkleRootIsUpdated",
      "type": "event"
    },
    {
      "inputs": [
        {
          "internalType": "address",
          "name": "userWalletAddress",
          "type": "address"
        },
        {
          "internalType": "uint256",
          "name": "amountToClaim",
          "type": "uint256"
        },
        {
          "internalType": "bytes32[]",
          "name": "userMerkleProof",
          "type": "bytes32[]"
        }
      ],
      "name": "claimAirdrop",
      "outputs": [],
      "stateMutability": "nonpayable",
      "type": "function"
    },
    {
      "inputs": [
        {
          "internalType": "bytes32[]",
          "name": "_merkleProof",
          "type": "bytes32[]"
        },
        {
          "internalType": "uint256",
          "name": "_amount",
          "type": "uint256"
        }
      ],
      "name": "confirmMerkleProofInHash",
      "outputs": [
        {
          "internalType": "bool",
          "name": "",
          "type": "bool"
        }
      ],
      "stateMutability": "view",
      "type": "function"
    },
    {
      "inputs": [],
      "name": "merkleRoot",
      "outputs": [
        {
          "internalType": "bytes32",
          "name": "",
          "type": "bytes32"
        }
      ],
      "stateMutability": "view",
      "type": "function"
    },
    {
      "inputs": [],
      "name": "owner",
      "outputs": [
        {
          "internalType": "address",
          "name": "",
          "type": "address"
        }
      ],
      "stateMutability": "view",
      "type": "function"
    },
    {
      "inputs": [],
      "name": "tokenAddress",
      "outputs": [
        {
          "internalType": "address",
          "name": "",
          "type": "address"
        }
      ],
      "stateMutability": "view",
      "type": "function"
    },
    {
      "inputs": [
        {
          "internalType": "bytes32",
          "name": "_merkleRoot",
          "type": "bytes32"
        }
      ],
      "name": "updateMerkleRoot",
      "outputs": [],
      "stateMutability": "nonpayable",
      "type": "function"
    }
  ],
  "bytecode": "0x608060405234801561001057600080fd5b5060405162000c7738038062000c778339818101604052810190610034919061015c565b816000806101000a81548173ffffffffffffffffffffffffffffffffffffffff021916908373ffffffffffffffffffffffffffffffffffffffff1602179055508060028190555033600160006101000a81548173ffffffffffffffffffffffffffffffffffffffff021916908373ffffffffffffffffffffffffffffffffffffffff160217905550505061019c565b600080fd5b600073ffffffffffffffffffffffffffffffffffffffff82169050919050565b60006100f3826100c8565b9050919050565b610103816100e8565b811461010e57600080fd5b50565b600081519050610120816100fa565b92915050565b6000819050919050565b61013981610126565b811461014457600080fd5b50565b60008151905061015681610130565b92915050565b60008060408385031215610173576101726100c3565b5b600061018185828601610111565b925050602061019285828601610147565b9150509250929050565b610acb80620001ac6000396000f3fe608060405234801561001057600080fd5b50600436106100625760003560e01c806301a566c7146100675780632eb4a7ab146100975780634783f0ef146100b55780638da5cb5b146100d15780639d76ea58146100ef578063a0e848c71461010d575b600080fd5b610081600480360381019061007c919061077a565b610129565b60405161008e91906107f5565b60405180910390f35b61009f6101ee565b6040516100ac9190610829565b60405180910390f35b6100cf60048036038101906100ca9190610870565b6101f4565b005b6100d9610317565b6040516100e691906108de565b60405180910390f35b6100f761033d565b60405161010491906108de565b60405180910390f35b61012760048036038101906101229190610925565b610361565b005b600080338360405160200161013f9291906109a8565b6040516020818303038152906040528051906020012060405160200161016591906109f2565b60405160208183030381529060405280519060200120905060006101cd868680806020026020016040519081016040528093929190818152602001838360200280828437600081840152601f19601f820116905080830192505050505050506002548461062c565b905080156101e0576001925050506101e7565b6000925050505b9392505050565b60025481565b600073ffffffffffffffffffffffffffffffffffffffff163373ffffffffffffffffffffffffffffffffffffffff161461025a576040517f56b3314a00000000000000000000000000000000000000000000000000000000815260040160405180910390fd5b600160009054906101000a900473ffffffffffffffffffffffffffffffffffffffff1673ffffffffffffffffffffffffffffffffffffffff163373ffffffffffffffffffffffffffffffffffffffff16146102e1576040517f9969c69400000000000000000000000000000000000000000000000000000000815260040160405180910390fd5b806002819055507f38dbed1ef6aa5cea6d4a86122d8a74c927ad85802b7992ab0533e0321dd8469260405160405180910390a150565b600160009054906101000a900473ffffffffffffffffffffffffffffffffffffffff1681565b60008054906101000a900473ffffffffffffffffffffffffffffffffffffffff1681565b600073ffffffffffffffffffffffffffffffffffffffff163373ffffffffffffffffffffffffffffffffffffffff16036103c7576040517f56b3314a00000000000000000000000000000000000000000000000000000000815260040160405180910390fd5b8373ffffffffffffffffffffffffffffffffffffffff163373ffffffffffffffffffffffffffffffffffffffff161461042c576040517fd704b5e900000000000000000000000000000000000000000000000000000000815260040160405180910390fd5b60011515600360003373ffffffffffffffffffffffffffffffffffffffff1673ffffffffffffffffffffffffffffffffffffffff16815260200190815260200160002060009054906101000a900460ff161515036104b6576040517fd2f3f39600000000000000000000000000000000000000000000000000000000815260040160405180910390fd5b6104c1828285610129565b6104f6576040517e47211600000000000000000000000000000000000000000000000000000000815260040160405180910390fd5b60008054906101000a900473ffffffffffffffffffffffffffffffffffffffff1673ffffffffffffffffffffffffffffffffffffffff1663a9059cbb85856040518363ffffffff1660e01b81526004016105519291906109a8565b6020604051808303816000875af1158015610570573d6000803e3d6000fd5b505050506040513d601f19601f820116820180604052508101906105949190610a39565b506001600360003373ffffffffffffffffffffffffffffffffffffffff1673ffffffffffffffffffffffffffffffffffffffff16815260200190815260200160002060006101000a81548160ff0219169083151502179055507fddaebc431e38bce3b9c1017bc729090d133d68b80fc08a5a773a6b1f3345039c848460405161061e9291906109a8565b60405180910390a150505050565b6000826106398584610643565b1490509392505050565b60008082905060005b8451811015610688576106798286838151811061066c5761066b610a66565b5b6020026020010151610693565b9150808060010191505061064c565b508091505092915050565b60008183106106ab576106a682846106be565b6106b6565b6106b583836106be565b5b905092915050565b600082600052816020526040600020905092915050565b600080fd5b600080fd5b600080fd5b600080fd5b600080fd5b60008083601f840112610704576107036106df565b5b8235905067ffffffffffffffff811115610721576107206106e4565b5b60208301915083602082028301111561073d5761073c6106e9565b5b9250929050565b6000819050919050565b61075781610744565b811461076257600080fd5b50565b6000813590506107748161074e565b92915050565b600080600060408486031215610793576107926106d5565b5b600084013567ffffffffffffffff8111156107b1576107b06106da565b5b6107bd868287016106ee565b935093505060206107d086828701610765565b9150509250925092565b60008115159050919050565b6107ef816107da565b82525050565b600060208201905061080a60008301846107e6565b92915050565b6000819050919050565b61082381610810565b82525050565b600060208201905061083e600083018461081a565b92915050565b61084d81610810565b811461085857600080fd5b50565b60008135905061086a81610844565b92915050565b600060208284031215610886576108856106d5565b5b60006108948482850161085b565b91505092915050565b600073ffffffffffffffffffffffffffffffffffffffff82169050919050565b60006108c88261089d565b9050919050565b6108d8816108bd565b82525050565b60006020820190506108f360008301846108cf565b92915050565b610902816108bd565b811461090d57600080fd5b50565b60008135905061091f816108f9565b92915050565b6000806000806060858703121561093f5761093e6106d5565b5b600061094d87828801610910565b945050602061095e87828801610765565b935050604085013567ffffffffffffffff81111561097f5761097e6106da565b5b61098b878288016106ee565b925092505092959194509250565b6109a281610744565b82525050565b60006040820190506109bd60008301856108cf565b6109ca6020830184610999565b9392505050565b6000819050919050565b6109ec6109e782610810565b6109d1565b82525050565b60006109fe82846109db565b60208201915081905092915050565b610a16816107da565b8114610a2157600080fd5b50565b600081519050610a3381610a0d565b92915050565b600060208284031215610a4f57610a4e6106d5565b5b6000610a5d84828501610a24565b91505092915050565b7f4e487b7100000000000000000000000000000000000000000000000000000000600052603260045260246000fdfea26469706673582212207b82c3b874bdd6be22cfd3722fa7ef87c91297c12987c07188fc965105ab8a8c64736f6c63430008180033",
  "linkReferences": {},
  "deployedLinkReferences": {}
}